:0E0000000C9445000C9400000C9400000C942D
:10000E0000000C9400000C9400000C9400000C9462
:10001E0000000C9400000C9400000C9400000C9452
:10002E0000000C9400000C9400000C9400000C9442
:10003E0000000C9400000C9400000C9400000C9432
:10004E0000000C94000000000000000080EEEEEEB8
:10005E00EEE0FFFF80E7DBBDFEFFFFFFA0FFFFFF2F
:10006E00FFFFFFFF83F5F6F6F583FFFF80F7F7F747
:10007E0080FFFFFF8040201008040201F894EE2755
:10008E00ECBBF1E0FBBFEBBFE5BF8DE0A2E0BB2711
:10009E00ED938A95E9F780E098E0A0E6ED9301975D
:1000AE00E9F7EFE5EDBFE8E0EEBFC0E6D2E00C9475
:1000BE006000EFEFEABBE7BBE69786E3A0E0B0E0B7
:1000CE00E4E5F0E00E94C000E0E0E883E983A88167
:1000DE00B98190970CF040C0E0E0EA83EB83AA81EF
:1000EE00BB811A979CF5E0E0EC83ED83AC81BD817A
:1000FE00189734F5E881F981AC81BD81EA0FFB1FB9
:10010E00DE011696AE0FBF1FEC91E8BBEC81FD81B0
:10011E00DE019E96AE0FBF1FEC91EBBBA5E0B0E0EB
:10012E000E94B600EFEFE8BBE0E0EBBB88EC90E09E
:10013E000197F1F7EC81FD813196EC83FD83D6CFEB
:10014E00EA81FB813196EA83FB83C9CFE881F9818D
:10015E003196E883F983BBCFE696AECFFFCF1096EC
:10016E0039F080ED97E00197F1F7A8951197C9F74F
:10017E000895AC0FBD1F05900D928A95E1F7089575
:00000001FF
