:080000000C94FD020C940000B9
:100008000C9400000C9400000C9400000C94000068
:100018000C9400000C9400000C9400000C94000058
:100028000C9400000C9400000C9400000C94000048
:100038000C94A2030C9400000C9400000C94000093
:100048000C9400000C9400000C9400000C94000028
:100058000C9400000C9400000C9400000C94000018
:100068000C9400000C9400000C9400000C94000008
:100078000C9400000C9400000C9400000C940000F8
:100088000C9400000C9400000C9400000C940000E8
:100098000C9400000C9400000C9400000C940000D8
:1000A8000C9400000C9400000C9400000C940000C8
:1000B8000C9400000C9400000C9400000C940000B8
:1000C8000C9400000C9400000C9400000C940000A8
:1000D8000C9400000C9400000C9400000C94000098
:1000E8000C9400000C9400000C9400000C94000088
:1000F8000C9400000C9400000C9400000C94000078
:100108000C9400000C9400000C9400000C94000067
:100118000C9400000C9400000C9400000C94000057
:100128000C9400000C9400000C9400000C94000047
:100138000C9400000C9400000C9400000C94000037
:100148000C9400000C9400000C9400000C94000027
:100158000C9400000C9400000C9400000C94000017
:100168000C9400000C9400000C9400000C94000007
:100178000C9400000C9400000C9400000C940000F7
:100188000C9400000C9400000C9400000C940000E7
:100198000C9400000C9400000C9400000C940000D7
:1001A8000C9400000C9400000C9400000C940000C7
:1001B8000C9400000C9400000C9400000C940000B7
:1001C8000C9400000C9400000C9400000C940000A7
:1001D8000C9400000C9400000C9400000C94000097
:1001E8000C9400000C9400000C9400000C94000087
:1001F8000C940000920293029F02AA02B702C20264
:10020800CD02DD02E702F0020203150326033503DF
:100218004603560320222A2B2C5B3D5D7C7F000081
:1002280000040002000180004000200010000800C7
:1002380004000200000000800040002000100008B8
:1002480000400020001000080004000266696C6588
:100258002E747874746573745F64697249206C696C
:100268006B6520436F6465566973696F6E415652BA
:10027800212048657265277320736F6D65206D6F47
:10028800726520746578742E2E2E0046525F44499C
:10029800534B5F4552520046525F494E545F455298
:1002A800520046525F4E4F545F52454144590046F2
:1002B800525F4E4F5F46494C450046525F4E4F5F76
:1002C800504154480046525F494E56414C49445F9C
:1002D8004E414D450046525F44454E49454400460F
:1002E800525F45584953540046525F494E56414C57
:1002F80049445F4F424A4543540046525F5752496A
:1003080054455F50524F5445435445440046525F4C
:10031800494E56414C49445F44524956450046525D
:100328005F4E4F545F454E41424C45440046525F34
:100338004E4F5F46494C4553595354454D0046521C
:100348005F4D4B46535F41424F525445440046521D
:100358005F54494D454F5554004552524F523A202B
:1003680025700D0A0046696C653A20222573222CF7
:1003780020417474726962757465733A2025632527
:10038800632563256325630D0A446174653A202556
:100398003032752F253032752F25752C2054696D14
:1003A800653A20253032753A253032753A25303293
:1003B800750D0A53697A653A20256C75206279743F
:1003C80065730D0A0046696C652022257322206F2B
:1003D80070656E6564204F4B0D0A002575206279A3
:1003E80074657320726561640D0A0052656164204A
:1003F800746578743A20222573220D0A0046696CC8
:1004080065202225732220636C6F736564204F4B2F
:100418000D0A004C6F676963616C206472697665C8
:1004280020303A206D6F756E746564204F4B0D0A4D
:10043800004469726563746F7279202225732220E3
:1004480063726561746564204F4B0D0A00446972DC
:100458006563746F7279202225732220616C72653E
:10046800616479206578697374730D0A0044697250
:100478006563746F7279206368616E676564207460
:100488006F3A20222573220D0A0046696C652022E6
:100498002573222063726561746564204F4B0D0AD1
:1004A80000577269746520746578743120746F2000
:1004B8007468652066696C650D0A00257520627987
:1004C800746573207772697474656E206F66202571
:1004D800750D0A005365656B20746F20746865207C
:1004E800656E64206F66207468652066696C652097
:1004F8004F4B0D0A00417070656E64207465787406
:100508003220746F207468652066696C650D0A0076
:10051800257520627974657320617070656E6465F5
:1005280064206F662025750D0A00526561642D4FA1
:100538006E6C792061747472696275746520736574
:1005480074204F4B0D0A004E65772074696D652045
:100558007374616D7020253032752F253032752FF8
:10056800257520253032753A253032753A253032D6
:100578007520736574204F4B0D0A00526561642D18
:100588004F6E6C792061747472696275746520634A
:100598006C6561726564204F4B0D0A000100EBFE2B
:1005A800904D53444F53352E30004E4F204E414D01
:1005B80045202020204641543332202020004E4F31
:1005C800204E414D45202020204641542020202007
:1005D800200008006C285402080075285C021600E8
:1005E8007E286402180095287A020100AE29A40525
:1005F8000000F894EE27F091CC01F860F093CC015C
:10060800F8EDF4BFE093A200A0918000AD7FA16057
:10061800F4BFA093800080E090E2A0E0B0E2ED9308
:100628000197E9F7EAEDF5E085919591009761F07A
:10063800A591B59105901590BF01F00105900D9217
:100648000197E1F7FB01F0CF8BBFE0E0E0B9E1B93A
:10065800E2B9E3B9E4B9E5B9E6B9E7B9E8B9E9B99E
:10066800EAB9EBB9ECB9EDB9EEB9EFB93E2E4E2EB9
:100678005E2EEFEFEDBFEFE3EEBFC0E0D4E20C94E7
:10068800CF041A93E0915000E460E0935000E091A9
:100698005100E470E1F3E0E0E0936000E091500085
:1006A800E260E0935000E0915100E270E1F3E091E4
:1006B8005600E97FE0935600E1E0E0936000E091A6
:1006C8004100E078E2601E2FE8EDE4BF109341009E
:1006D800E0914000E87FE1601E2FE8EDE4BF109351
:1006E8004000E0915000E67EE0935000E091B400B5
:1006F800E07FE093B40019910895E2E0E0930008E8
:10070800E0E0E0930108E0930308E0930408E1E0E7
:10071800E0930608E0E0E0930708E0910C08E09316
:100728000C08E0E0F0E0E0932008F0932108EFE304
:10073800FCE9E0932608F093270808950A921A9294
:10074800FA926A937A938A939A93AA93BA93EA93BA
:10075800FA93EFB7EA936CD7E991EFBFF991E99172
:10076800B991A9919991899179916991F990199083
:1007780009901895E8E0E0934006E0934506E3E029
:10078800E093A508E091A308E07CE093A308E5ECDA
:10079800E093A608ECEAE093A708E091A408E07EBD
:1007A800E860E093A4080895AA93E091A108E07294
:1007B800E1F3E881E093A008C5C4AA93A881A13019
:1007C80010F0A03108F012C0E1E6F3E0FA93EA93E2
:1007D800EA81ACEFB1E0F0E0EE0FFF1FEA0FFB1F7C
:1007E8000E944B260E943C200E944120FFCFBA93D2
:1007F800AA93E881F981FA93EA93A6E5B8E20E9400
:10080800091C3E2EE03009F07AC0EDE6F3E0FA93D9
:10081800EA93EFE5F8E20E943C20E0915E28E0715F
:1008280011F0E4E401C0EDE20E944620E17011F00D
:10083800E2E501C0EDE20E944620E27011F0E8E432
:1008480001C0EDE20E944620E47011F0E3E501C02A
:10085800EDE20E944620E07211F0E1E401C0EDE211
:10086800FF27662777270E946326E0915A28F09190
:100878005B28EF71F0700E943C20A0915A28B0913B
:100888005B28E5E00E948425EF70F0700E943C2010
:10089800A0915A28B0915B28E9E00E948425E4548D
:1008A800F84F0E943C20A0915C28B0915D28EBE0B5
:1008B8000E9484250E943C20A0915C28B0915D286C
:1008C800E5E00E948425EF73F0700E943C20E091DF
:1008D8005C28F0915D28EF70F070EE0F0E943C20CC
:1008E800E0915628F091572860915828709159281E
:1008F8000E94632684E30E94C51FE69602C0A32DCA
:100908005CDF229608950E944E200E945320A1E0A9
:100918000E94582029F40E945D200E94412002C0B4
:10092800A32D4BDF0E944E20EEEAF8E2FA93EA93F9
:10093800EFEFF0E0FA93EA93ADB7BEB711975F9285
:100948004F920E94A3164F905F903E2EE030B1F474
:10095800E3EEF3E00E9464200E944120F201E15599
:10096800F74DA0E0A083E3EFF3E0FA93EA93EEEA11
:10097800F8E20E943C200E94412002C0A32D1DDF06
:100988000E94682029F40E946F200E94412002C022
:10099800A32D13DF0895E091A200E873E1601E2FF4
:1009A800E8EDE4BF1093A200E0E0E093A10069DE67
:1009B800A4DEE0DEE0E0E0930024E0930124E0938D
:1009C8000224E0930324789449D6E03011F4A3E09C
:1009D800F4DEE0E0EA93A4E0B4E20E9454153E2E6F
:1009E800E03029F4EBE1F4E00E94762002C0A32D68
:1009F800E4DEA5E7B8E20E94CE1C3E2EE03039F4D2
:100A0800E9E3F4E00E947D200E9441200CC0E8E068
:100A1800E31539F4E5E5F4E00E947D200E944120C9
:100A280002C0A32DCADEA5E7B8E20E94281A3E2E0E
:100A3800E03039F4E5E7F4E00E947D200E9441208F
:100A480002C0A32DBADEACE6B8E20E94381C0E94B0
:100A58004E200E945320AAE00E94582039F4E2E96F
:100A6800F4E00E9482200E94412002C0A32DA5DE4E
:100A7800E9EAF4E00E9476200E944E20EEE7F8E2D0
:100A8800FA93EA93E6E1F0E0FA93EA93ADB7BEB7DA
:100A980011975F924F920E9403184F905F903E2EDD
:100AA800E03059F4E3ECF4E00E946420E6E1F0E081
:100AB80060E070E00E94872002C0A32D7EDE0E94C5
:100AC800682029F40E946F200E94412002C0A32DB3
:100AD80074DE19DF0E944E200E945320A2E00E947B
:100AE800582029F40E945D200E94412002C0A32DB5
:100AF80064DE0E944E20A0914026B091412680914C
:100B08004226909143260E94681A3E2EE03039F41E
:100B1800ECEDF4E00E9482200E94412002C0A32D47
:100B28004CDEEDEFF4E00E9476200E944E20E5E9CD
:100B3800F8E2FA93EA93E8E1F0E0FA93EA93ADB7C2
:100B4800BEB711975F924F920E9403184F905F9023
:100B58003E2EE03059F4E8E1F5E00E946420E8E137
:100B6800F0E060E070E00E94872002C0A32D25DE3F
:100B78000E94682029F40E946F200E94412002C030
:100B8800A32D1BDEC0DE0E948E20E1E00E94932090
:100B980039F4E2E3F5E00E9482200E94412002C07D
:100BA800A32D0BDEE6E6F8E2E0935A28F0935B28E3
:100BB800E0E0F5E7E0935C28F0935D280E9453207D
:100BC800A6E5B8E20E94051E3E2EE03059F5EFE496
:100BD800F5E0FA93EA93E6E0F0E060E070E00E9466
:100BE8006326E3E0F0E060E070E00E946326E0ED59
:100BF800F7E060E070E00E946326EEE0F0E060E07D
:100C080070E00E946326E8E2F0E060E070E00E9495
:100C180063260E949A200E94632688E10E94C51FCD
:100C28006A9602C0A32DC9DD0E948E20E0E00E94D2
:100C3800932039F4E3E8F5E00E9482200E944120E5
:100C480002C0A32DBADDACE6B8E2D1DDFFCFFFCFFD
:100C5800AA930E94902620E00C81AD81BE813D912F
:100C6800AD83BE8318E0220FE22FE327E07811F06E
:100C7800E9E02E27330F1150B1F7015071F7E22F39
:100C8800EE0FE1600E94972689C51A93E2E3E0938C
:100C9800B029EFEFE093C309E091C209E078E1F3EE
:100CA800EFEFE093C309E091C209E078E1F3109116
:100CB800C3091F3F21F0E091B029E03009F401C0D9
:100CC800EFCFE12FC9C4E0E1E0936506EFEFE093D1
:100CD800C309E091C209E078E1F30895BA93AA93B1
:100CE8000E949026E4E1E093AF29EFEFE093C30977
:100CF800E091C209E078E1F31091C3091F3F21F4A4
:100D0800E091AF29E03009F401C0EFCF1E3F21F098
:100D1800E0E00E949726F1C22E813F81EFEFE09339
:100D2800C309E091C209E078E1F33F932F932F5F65
:100D38003F4FE091C309AF91BF91EC93EFEFE09380
:100D4800C309E091C209E078E1F33F932F932F5F45
:100D58003F4FE091C309AF91BF91EC93EFEFE09360
:100D6800C309E091C209E078E1F33F932F932F5F25
:100D78003F4FE091C309AF91BF91EC93EFEFE09340
:100D8800C309E091C209E078E1F33F932F932F5F05
:100D98003F4FE091C309AF91BF91EC93EC81FD8186
:100DA8003497EC83FD8309F0B9CFEFEFE093C309E3
:100DB800E091C209E078E1F3EFEFE093C309E09135
:100DC800C209E078E1F3E1E00E94972696C2AA936F
:100DD8000E9490265ADFEF3F21F0E0E00E9497261C
:100DE800DDC4EC81E093C309E091C209E078E1F346
:100DF800AC81AD3FC1F100E02D813E81D9012F5F6B
:100E08003F4FEC91E093C309E091C209E078E1F328
:100E1800D9012F5F3F4FEC91E093C309E091C209DC
:100E2800E078E1F3015051F7EFEFE093C309E09167
:100E3800C209E078E1F3EFEFE093C309E091C2095A
:100E4800E078E1F3EFEFE093C309E091C209E078BD
:100E5800E1F31091C309E12FEF71E53021F0E0E0F3
:100E68000E9497269BC4E1E00E94972697C40E949F
:100E780068261A930A93EE81E07881F0EE81EF7785
:100E8800EE83E7E7EA93A0E0B0E080E090E0EFDFF0
:100E98000E2F023018F01981088180C4AE81AC345D
:100EA80059F011DFE0E1E0936606EFDEEF3F21F055
:100EB800EFEF1981088172C4EE81E093C309E091D4
:100EC800C209E078E1F3ED81E093C309E091C2093A
:100ED800E078E1F3EC81E093C309E091C209E0789E
:100EE800E1F3EB81E093C309E091C209E078E1F313
:100EF800EA81E093C309E091C209E078E1F311E0E7
:100F0800AE81A03411F415E904C0AE81A83409F407
:100F180017E81093C309E091C209E078E1F3AE81C4
:100F2800AC3439F4EFEFE093C309E091C209E078FB
:100F3800E1F31FEFEFEFE093C309E091C209E07816
:100F4800E1F30091C30907FF02C0115009F401C081
:100F5800F1CFE02F1981088121C4BA93AA931A937B
:100F680014E0EFEFE093C309E091C209E078E1F300
:100F7800A981BA811196A983BA831197E091C3090F
:100F8800EC93115071F7ECC4AA9324970E94902611
:100F9800E885E03011F0E1E0C9C0EAE0E093AF296C
:100FA800E091AF29E030E1F7E091AE29E27009F075
:100FB800BBC0E0E1E0936106E0936506E0EAE093F8
:100FC8006606E0E4E0936206E8E1E0937606E0EB8B
:100FD800E0936106E2E5E093C00935E01AE0EFEF3F
:100FE800E093C309E091C209E078E1F31150B9F741
:100FF800E0E4EA93A0E0B0E080E090E038DF0E2F74
:101008003150013011F0303009F401C0E7CF30E041
:10101800013009F068C0E4E6E093AF29E8E4EA9318
:10102800AAEAB1E080E090E022DFE13091F5DE014C
:10103800149693DFAE81A13019F4AF81AA3A09F072
:1010480027C0E091AF29E03049F0E9EEEA93A0E04B
:10105800B0E080E090E40BDFE03009F401C0F1CFAC
:10106800E091AF29E03049F0EAE7EA93A0E0B0E088
:1010780080E090E0FCDEE03009F00AC0DE01149662
:101088006CDFEC81E07411F0ECE001C0E4E03E2F8D
:101098002AC0E9EEEA93A0E0B0E080E090E0E7DE65
:1010A800E23018F432E009EE02C031E001E4E091E8
:1010B800AF29E03041F00A93A0E0B0E080E090E092
:1010C800D6DEE03009F401C0F2CFE091AF29E0307C
:1010D80049F0E0E5EA93A0E0B2E080E090E0C7DE06
:1010E800E03009F030E03093B129EDDD303049F0DF
:1010F800E091AE29EE7FE093AE29E0EDE093C009E0
:1011080013C0E0E1E0936606C0DDDDDDE0E0E093DA
:10111800C009E0EFE0936206E0E1E0936206E09147
:10112800AE29E160E093AE29E091AE290E949726AE
:1011380029960895AA93E881E03011F0E1E002C011
:10114800E091AE2921960895AA93EF81E03019F431
:10115800E881E03011F4E4E0D0C0E091AE29E1701C
:1011680011F0E3E0CAC0E091B129E87071F4E981B7
:10117800FA816B817C81A0E0B2E080E090E00E947F
:10118800D025E983FA836B837C83A881A130A9F4F5
:10119800E1E5EA93AA81BB818C819D8168DEE0301C
:1011A80059F4ED81FE81FA93EA93A0E0B2E096DD6E
:1011B800E03011F0E0E0E88323C0E2E5EA93AA8199
:1011C800BB818C819D8153DEE030D1F4ED81FE81BD
:1011D800FA93EA93A0E0B2E081DDE03051F0ED81CE
:1011E800FE81E050FE4FED83FE83E881E150E88305
:1011F80069F7ECE4EA93A0E0B0E080E090E037DE45
:1012080062DDE881E03011F0E1E001C0E0E075C0A6
:10121800AA93EF81E03019F4E881E03011F4E4E0BA
:101228006CC0E091AE29E17011F0E3E066C0E09196
:10123800AE29E47011F0E2E060C0E091B129E870F5
:1012480071F4E981FA816B817C81A0E0B2E080E0F1
:1012580090E00E94D025E983FA836B837C83A88180
:10126800A130A1F4E8E5EA93AA81BB818C819D8134
:10127800FEDDE03051F4ED81FE81FA93EA93AEEFA2
:10128800A6DDE03011F0E0E0E88330C0E091B1295C
:10129800E67039F0E7EDEA93A981BB2788279927FB
:1012A800E6DDE9E5EA93AA81BB818C819D81DFDDDA
:1012B800E030E1F4ED81FE81FA93EA93ACEF87DD4B
:1012C800E03051F0ED81FE81E050FE4FED83FE836A
:1012D800E881E150E88371F7E0E0F0E0FA93EA93FF
:1012E800ADEF75DDE03011F4E1E0E883ECDCE88196
:1012F800E03011F0E1E001C0E0E028960895BA93EB
:10130800AA9360970E949026EF89E03011F0E4E0FC
:101318008BC1E091AE29E17011F0E3E085C111E0E5
:10132800EE89E03041F4E0E1E0936606AEDCEF3FA1
:1013380009F410E077C1E13009F05BC0E9E4EA9311
:10134800A0E0B0E080E090E092DDE03049F4FE01FA
:101358003496FA93EA93A0E1B0E0C0DCE03009F4F7
:1013680047C0EC81E295EF70E695E695E13069F4C7
:10137800E0E0FC85AD85B0E0EA0FFB1F31969F01E8
:10138800D90188279927EAE02CC0E985EF70AE2FAC
:10139800EE85E078EE1FE0E0EE1FAE0FED85E3701E
:1013A800EE0FEA0FEE5F0E2FEC85E295EF70E695F3
:1013B800E695AE2FEB85F0E00E94A925B0E0AE0FD0
:1013C800BF1FEA85E370F0E00E94A925FE2FE0E048
:1013D800EA0FFB1F31969F01D90188279927E02F33
:1013E800E9500E948D25AC89BD890E94412610E0F4
:1013F80019C1E23041F4AC89BD89E0E0F2E0ED9337
:10140800FC9310E00FC1E33009F0AFC0E091B129BF
:10141800E470A1F1EDECEA93A0E0B0E080E090E0A8
:1014280026DDE03051F5EFEFE093C309E091C20902
:10143800E078E1F3FE013496FA93EA93A0E1B0E094
:101448004DDCE030D1F000E3003049F0EFEFE093FD
:10145800C309E091C209E078E1F30150F5CFEE85C8
:10146800E295EF70A0E1B0E080E090E00E948D2569
:10147800AC89BD890E94412610E076C0E9E4EA9370
:10148800A0E0B0E080E090E0F2DCE03009F06CC071
:10149800FE013496FA93EA93A0E1B0E01FDCE03055
:1014A80009F462C0E091B129E27051F1EE85EF7361
:1014B800FF27662777270E94B7257F936F93FF93AF
:1014C800EF93EF85E078FF2766277727DF01CB01C9
:1014D800E7E00E949925AF91BF918F919F910E945B
:1014E8005E25EF5FFF4F6F4F7F4FDF01CB01E9892B
:1014F800E295EF70E695E695E1500E948D252FC0A4
:10150800EE85EC77E695E695FF2766277727EF5F68
:10151800FF4F6F4F7F4F7F936F93FF93EF93EF854D
:10152800E370FF2766277727DF01CB01E3E00E94FE
:101538008D25DF01CB01EF85E07EE295EF70E69522
:10154800FF27662777270E945E25EF5FFF4F6F4FC3
:101558007F4FAF91BF918F919F910E94D025AC8909
:10156800BD890E94412610E05DC0EA3039F4E0915F
:10157800B129AC89BD89EC9310E054C0EB3011F46B
:1015880009E403C0EC3001F50AE40A93A0E0B0E0F6
:1015980080E090E06CDCE030B1F4EC89FD89FA93EE
:1015A800EA93A0E1B0E09ADBE03069F0EC89FD89CC
:1015B800FA93EA93AFE04CDBAE2FEC89FD89E7851F
:1015C800EA1709F410E02EC0ED3071F4EAE7EA9367
:1015D800A0E0B0E080E090E04ADCE03021F4AC89A3
:1015E800BD89BBDC10E01EC0EE30D9F4EDECEA9307
:1015F800A0E0B0E080E090E03ADCE03089F4EFEF82
:10160800E093C309E091C209E078E1F3EC89FD8930
:10161800FA93EA93A0E4B0E061DBE03009F010E06F
:1016280001C014E050DBE12F0E94972668960895C8
:101638001A931091AF29103019F011501093AF2957
:101648001091B029103019F011501093B029E09181
:10165800AE29EB7FE093AE29199108956097E09148
:10166800AE29E17021F0A0E08FDCE37081F4E0E0C6
:10167800EA93ECE0EA93DE01129641DEE03039F4B9
:10168800E091AE29EC7FE093AE29E1E006C0E0915D
:10169800AE29E360E093AE29E0E0609608952797CD
:1016A800A0910024B0910124109731F0A091022458
:1016B800B0910324109729F4E0E0F0E061E27AE3C6
:1016C8006DC0FE013696FA93EA93FE013796FA93B7
:1016D800EA93DE011896E0910024F091012409951F
:1016E800FE013396FA93EA93FE013496FA93EA934D
:1016F800DE011496E0910224F09103240995E88113
:10170800F981EC5BF74066277727DF01CB01E9E138
:101718000E948D257F936F93FF93EF93EA810E9438
:101728009F20E5E10E948D25AF91BF918F919F91F8
:101738000E947725DF01CB01EB81F0E00E94C625EE
:101748000E94C1250E9477257F936F93FF93EF93A3
:10175800EE810E949F20EBE00E948D25AF91BF9102
:101768008F919F910E9477257F936F93FF93EF93BB
:10177800ED810E949F20E5E00E948D25AF91BF91E9
:101788008F919F910E947725DF01CB01EC81F0E0DA
:10179800F595E7950E94C6250E9477252796089516
:1017A800AA931A93EA81FB81E4911E2FE03019F085
:1017B800E981E11709F406C0EA81FB813196EA83E1
:1017C800FB83F0CFE12FF0E01881249608950E9462
:1017D800682624971A93A985BA859E960E94A52003
:1017E8000E94AC200E94B1200E94842609F450C0B7
:1017F800E985FA85E481E03089F10E94B620E0307D
:10180800E1F5A985BA851496E0E0EC93E985FA85B7
:101818000E94C8200D01A985BA855A960E943626CD
:10182800D0010E945E250E94B1200E948926B0F452
:10183800E985FA851381123088F0A985BA855A9608
:101848000E9436260E94B1200E945E25E983FA8311
:101858006B837C830E94B6201150EDCF0E94AC2090
:101868000E947A26A9F0E985FA85A181AA93EA85DA
:10187800FB85F2960E94CD2021F0E1E018812B969D
:1018880008950E94AC20A985BA859E960E9441269B
:10189800E0E018814EC40E94DA200E94E2200E94F3
:1018A800E72009F05CC0A981BA81AC91A33029F482
:1018B800E981FA81E581E03009F445C0A981BA815E
:1018C8009E960E94EC20E981FA810E94F020E9812D
:1018D800FA81F296E250FE4FA5E5BAEAA083B183F9
:1018E800E981FA81F296A2E5B2E581E691E40E94E7
:1018F800F920EC51FE4FA2E7B2E781E491E60E949D
:10190800F920E851FE4F0F01A981BA811E960E9465
:10191800FF20F296E451FE4F0F01A981BA811A9671
:101928000E94FF20A181AA93EA81FB81F296FA9393
:10193800EA93EC81FD810E9407216ADCA981BA81C2
:101948001596E0E0EC93E981FA81A181AA93E0E0A1
:10195800EA93A0E0B0E0D3DCE03009F011E0E12F39
:101968001881239608950E94682624970E9490263D
:101978000E940F210E94142150F0AC85BD855E960F
:101988000E9436260E940F210E94892618F00E9484
:101998001C2160C0AC85BD8592960E942121AC8532
:1019A800BD85EC91F0E0E130A0E0FA0739F5288533
:1019B8003985F901F695E7952E0F3F1F0E942821DA
:1019C80009F046C00E943D210C9111272F5F3F4F1F
:1019D8000E942821E9F50E943D21EC91FE2FE0E0CC
:1019E8000E2B1F2BE885E17021F0F8010E94AE252F
:1019F80002C0F801FF70662777272CC0E230A0E00C
:101A0800FA0779F40E9445210E944E210E9455212F
:101A1800F9F4A885B985E2E00E945F210E94682157
:101A280019C0E330A0E0FA0799F40E9445210E940A
:101A38006D210E94552161F4A885B985E4E00E94D2
:101A48005F210E943626EF7FFF7F6F7F7F7002C085
:101A58000E9474210E9497262E9608950E94682657
:101A680024970E948E260E9479210E94142150F00A
:101A7800AA89BB895E960E9436260E9479210E9417
:101A8800892610F052E085C0AA89BB8992960E94E7
:101A98003626EE83FF8368877987AA89BB89EC910C
:101AA800F0E0E130A0E0FA0709F043C00E851F8599
:101AB800F801F695E7950E0F1F1F0E947E2109F089
:101AC80063C00E94912151F0D901EC91EF70AE2FC3
:101AD800EA85F0E00E94A525EA2B01C0EA85D90134
:101AE800EC930F5F1F4FAA89BB891496E1E0EC9332
:101AF8000E947E2109F048C00E94912149F00E946D
:101B08009C21E4E00E949925FF27662777270EC0CD
:101B1800D901EC91E07F1E2E0E949C21E8E00E94F2
:101B28009925FF2766277727EF70E129D901EC93DC
:101B38002BC0E230A0E0FA0789F40E94A1210E949C
:101B48004E210E94AA2101F5AE85BF85E2E00E94E0
:101B5800B221AA85BB85A083B18316C0E330A0E07B
:101B6800FA0789F40E94A1210E946D210E94AA21EE
:101B780059F4AE85BF85E4E00E94B2210E949C2101
:101B88000E945E2601C052E0AA89BB891496E1E052
:101B9800EC93E52F0E949526649608950E94682686
:101BA80024971A930E94BB210E94142118F00E94C6
:101BB800C02110F012E044C010E00E94C02108F0DB
:101BC8003FC0E985FA85FA93EA93AF81B88589859C
:101BD8009A85C9DEE983FA836B837C830E94C921D5
:101BE8000E947A2669F10E94B1200E94CE2111F448
:101BF80012E026C00E94B1200E94D62111F411E003
:101C08001FC0E985FA85FA93EA93EF81F88569851B
:101C18007A850E9463260E94E22020DF1E2F103062
:101C280079F4E985FA850E94DE2129F00E94E321F2
:101C38001596E1E0EC930E94C9210E94F121BDCFE5
:101C4800E12F188176C20E9468266097AC89BD8909
:101C58005E960E9436260E94F6210E94F9210E9473
:101C68007A26B1F4AC89BD891A960E9421210E9476
:101C7800FE210E947E2639F00E9403220E94FE2146
:101C88000E94892620F00E941C210E9406221CC066
:101C98000E940B220E9410220E9415220E941C22E0
:101CA8000E94142118F40E941C2186C00E9403225D
:101CB8000E941C220E94892618F40E9421227CC0BE
:101CC8000E94F9210E9406220E9426220E942B22AD
:101CD8000E9430220E9435220E942B220E94032259
:101CE8000E940F210E94892660F0E2E0F0E060E0A7
:101CF80070E00E942B220E943A2218F40E949A2037
:101D08005BC00E940B220E949C210E9415220E9407
:101D18003F2281F00E94432219F00E94452219F4C3
:101D28000E94212249C00E943A2219F40E949A2056
:101D380043C0CECF0E940B22EA85FB856C857D854A
:101D48000E946326AFEFBFEF8FEF9FE087DEE030A2
:101D580019F00E94742130C00E94F9210E947A264D
:101D680071F00E940B220E9447220E9463260E9463
:101D7800792174DEE03019F00E9474211DC00E94A0
:101D88003022AC89BD891A960E944126EC89FD89CA
:101D98000E94DE2179F0AC89BD891E960E943C26FE
:101DA8003197604070400E944626AC89BD891596DF
:101DB800E1E0EC930E943022669608950E9468261E
:101DC8000E940322E250F040604070400E94F621D9
:101DD800EC81FD81A68DB78D80A191A1E2E0F0E0B4
:101DE80060E070E00E944C220E9454260E948926DE
:101DF80018F00E949A203AC4EC81FD81E281F0E05B
:101E08000E9454260E94C6250E94D0257F936F9376
:101E1800FF93EF93AC81BD819A960E943626AF91CD
:101E2800BF918F919F910E945E2520C4BA93AA9377
:101E380024971A930A93EE81FF81A885B985149691
:101E4800ED93FC93A885B98516960E9451220E94AD
:101E580058220E94CE2129F00E945D220E9462220F
:101E680010F0E2E078C00E946A2229F40E945D2204
:101E7800A081A33009F006C00E945D22B696DF015A
:101E88000E9451220E946A22A1F40E94712238966F
:101E9800DF010E943226AE81BF81AE17BF0710F066
:101EA800E2E059C00E945D22B696DF010E94362604
:101EB80037C00E945D22E281A0E1EA9F8001AE81E5
:101EC800BF81A017B10728F10E945D22FA93EA9317
:101ED8000E94FE2148DDEA83FB836C837D830E9498
:101EE80058220E94D62111F4E1E035C00E94582200
:101EF8000E94142128F00E945D220E94622210F0A4
:101F0800E2E029C0EE81FF81E01BF10BEE83FF8345
:101F1800D6CF0E947122FA93EA930E94FE214EDFE7
:101F2800DF01CB01EE81FF810E94AE250E947B225A
:101F3800A885B9851E960E9441260E945D22F296C8
:101F4800DF01EE81FF810E948022A885B985529623
:101F5800ED93FC93E0E0198108812A960895AA93ED
:101F680024970E949026A985BA8514960E94322645
:101F780031968F01002E012A29F0A985BA850E9481
:101F8800882211F4E4E0D3C0F801EF7009F0BCC076
:101F98000E94E3211A960E9436260E947A2661F44E
:101FA8000E948E223896DF010E9432260E171F07E4
:101FB80010F0E4E0BCC0A8C0F8010E94AE250F01F3
:101FC8000E948E22E281F0E03197E021F1213097E2
:101FD80009F09AC00E948E220E949322C4DC0E94BB
:101FE80006220E94FE210E94142110F4E2E09FC004
:101FF8000E94FE210E94D62111F4E1E098C00E94BF
:102008008E227E96DF010E9436260E94FE210E94C3
:10201800892608F469C0E885E03011F4E4E087C057
:102028000E948E220E9493220EDE0E949C220E9411
:102038007A2611F4E7E07BC00E94FE210E94CE219F
:1020480011F4E2E074C00E94FE210E94D62111F42E
:10205800E1E06DC00E948E220E949E2211F0E1E014
:1020680066C00E948E220E94F0200E948E22DF010C
:10207800BE96FF93EF93FD010E94A522AF91BF91F9
:102088000E94412630E00E948E22E2813E17C0F471
:102098000E948E223496A1E0A0830E948E220E9484
:1020A8009E2211F0E1E043C00E948E22BE96DF011D
:1020B8000E943C260E9435220E9446263F5FE3CFBD
:1020C8000E948E22BE96FF93EF93DF010E94362670
:1020D800DF01CB01E32FF0E00E94C6250E944C22CD
:1020E800AF91BF910E9441260E942622A985BA85F8
:1020F8001A960E9441260E948E220E94A522A98536
:10210800BA851E960E944126F801A985BA851496BB
:10211800ED93FC930E948E22F296DF01F8010E9453
:102128008022A985BA855296ED93FC93E0E00E943F
:1021380097262B9608950E94AD220E94B2220E94F3
:10214800B82221F0E12F0E94972690C20E94BE2259
:10215800B9F40E94CB2211F414E012C0F901E3850E
:10216800E87031F40E94D4220E94E81FE03009F0A0
:1021780001C006C00E94B222F2DE1E2F103031F3D9
:10218800E12F0E94972672C20E94AD2214E0AC8112
:10219800BD810E948822D9F00E94BE22C1F40E940B
:1021A800CB2211F414E013C0053E49F0E1E0E03021
:1021B80011F40E3221F0F901E385E87009F001C04D
:1021C80006C00E94B222CBDE1E2F103001F3103061
:1021D80029F0AC81BD811E960E94EC20E12F0E945F
:1021E800972644C20E94AD220E94B2220E94B822C1
:1021F800B1F40E94BE2299F4EC81FD81A289B389D1
:102208000C91053E11F0003009F409C0EC81FD8104
:10221800FA93EA93A1E0A3DE1E2F103051F3103099
:1022280019F50E94BE2201F5AC81BD8152962D910F
:102238003C910E94DF22A0E2B0E00E9413200E949D
:10224800D4220E940120AC81BD8154960E9432267E
:10225800E385E871D9011C96EC93AC81BD810E949D
:1022680032263496A1E0A083E12F0E949726FEC172
:102278000E94DA20EB81FC81A481B581D7DD1E2F75
:102288001030D1F4A981BA810E94E422EB81FC814B
:10229800A685B785808991890E94E72069F4E9813C
:1022A800FA81A289B389E5EEEC93A981BA810E94EB
:1022B80032263496A1E0A083E12F18812396089551
:1022C800BA93AA9325970E948E26AD85BE8554960B
:1022D8004D915C915A934A930E94E922E0E0E88785
:1022E800E9871E2F2E2FE8E0EA87AB85BC850E9480
:1022F800EF220E94F422AE0FBF1FAC91AE3209F557
:102308000E94F9220E3221F4A885B98513970CF0A2
:1023180003C00E940523F4CF0F3221F00C3511F0D1
:10232800013208F402C0E6E06DC00E94F4220E9467
:102338000C2310F4E4E201C0E0E2DA011B96EC930E
:1023480060C00E94F922013220F00F3211F00C35E2
:1023580009F432C00E3219F0EA852E1768F0AA8502
:10236800A83011F40E3211F0E6E04CC028E0EBE0A2
:10237800EA87110F110F1FC0003818F01360E6E04C
:1023880041C0ECE1F2E0FA93EA93A02F09DA309722
:1023980011F0E6E037C0013410F00B3508F002C048
:1023A800126007C0013610F00B3708F002C0116048
:1023B80000520E940523C5CF0E94F4220E940C23DC
:1023C80010F4E4E001C0E0E00E2F203011F4E6E064
:1023D80019C0DA01AC91A53E19F4DA01E5E0EC93F5
:1023E800AA85A83011F4110F110FE12FE370E13025
:1023F80009F40061E12FEC70E43009F40860FA0197
:102408000387E0E00E9495262F960895BA93AA9331
:1024180022970E948E26E885F9853996EE83FF83F8
:10242800AA85BB850E94882209F464C0AA85BB8559
:1024380052964D915C91FA01348510E01830B8F449
:102448000E941423A1F0053009F405EEE0E0E03025
:1024580041F033FF06C0013410F00B3508F001C01D
:1024680001C001C0005E0E941B231F5FE7CFFA0175
:10247800A085A032F9F0AE81BF811196AE83BF83EB
:102488001197EEE2EC9318E01B30A0F40E9414239D
:1024980089F0E0E0E03041F034FF06C0013410F08C
:1024A8000B3508F001C001C001C0005E0E941B236B
:1024B8001F5FEACFFA01E385A885B9851896EC93E2
:1024C800DA015C960E943626A885B9850E944126C5
:1024D800DA0158960E943226A885B9851496ED939C
:1024E800FC93DA0156960E943226A885B98516967D
:1024F800ED93FC93AE81BF81E0E0EC930E949526BA
:102508002C9608950E94AD22E1E0E03029F0AC81DC
:10251800BD81AC91A03209F006C0EC81FD813196F5
:10252800EC83FD83F1CFAC81BD81AC91AF3229F052
:10253800AC81BD81AC91AC3559F4EC81FD8131960B
:10254800EC83FD83AE81BF8116960E94EC200AC001
:10255800AE81BF810E9432267696DF010E94362620
:102568000E942323AC81BD81AC91BB27909760F476
:102578000E942923A0E0B0E059DC1E2FAE81BF8164
:1025880052960E942E233DC00E942923DE011696F2
:1025980097DE1E2F1030A9F5AE81BF81CCDD1E2F2E
:1025A800AE81BF8154960E943226E385E4700E2FD7
:1025B800103039F0143011F4003009F001C015E082
:1025C80020C00030F1F4AE81BF8152962D913C912C
:1025D800F901E385E07111F415E013C00E9433237B
:1025E8000E94C1257F936F93FF93EF930E94362338
:1025F800AF91BF918F919F910E943B230E9423230B
:10260800C3CFE12F0E949726289608950E94682636
:10261800EC81FD81A181AA93ED81FE81F296FA9366
:10262800EA93EB81FC816D817E810E94402311F049
:10263800E3E01CC0EC81FD810E94472311F0E2E039
:1026480015C0AC81BD81A859BF4F0E94512311F418
:10265800E0E00CC0EC81FD81F296EE5AFF4FDF01FD
:102668000E94512311F4E0E001C0E1E026960895AC
:10267800AA9364970E948E26AD8DBE8D0E94322645
:10268800E887F987A885B985EC91E0530E2F0A30C1
:1026980020F41196AC91AA3309F00AC0E885F985AF
:1026A8003296E887F987AD8DBE8DED93FC9302C015
:1026B8000091B629013010F0EBE0CCC1E02F0E9468
:1026C8005F230E94EF22AB8DBC8DED93FC93EE81CE
:1026D800FF81309711F4ECE0BDC1AE81BF81EC9170
:1026E800E03089F0EE81FF81A1810E949E085E2F73
:1026F80050FD09C0EA8DE03011F052FD01C002C062
:10270800EAE0A8C1A6C1AE81BF81E0E0EC93E02F6A
:10271800AE81BF811196EC93EE81FF81A1810E9469
:10272800C8075E2F50FF02C0E3E094C1EA8DE03095
:1027380011F052FD01C002C0EAE08CC10E942923B9
:102748000E949A20E88FF98F6A8F7B8FDF01CB0177
:102758005DDF1E2F1130C9F4EE81FF81F296E2543D
:10276800FE4F9F01E481E03081F0D90118960E9464
:102778003626EE8BFF8B688F798F0E942923A88DD0
:10278800B98D8A8D9B8D42DF1E2F133011F4E1E045
:1027980061C1103049F4AE81BF81DD960E943226B6
:1027A800E030A2E0FA0711F0EDE054C1AE81BF813C
:1027B800A85BBF4F0E9468210E9467230E9447229E
:1027C8000E947A2641F4AE81BF81AA5ABF4F0E9467
:1027D80036260E9467230E944722AE81BF815A96FF
:1027E8000E944126EE81FF81EE5BFF4FE081AE81C2
:1027F800BF811396EC93EE81FF81E381F0E00E94A4
:1028080010220E94C6250E94D0250E9467230E949C
:102818006C230E947323AE81BF8192960E94412649
:10282800EE81FF81E7ADAE81BF811296EC93AE8158
:10283800BF81AD5BBF4F0E943226AE81BF81189623
:10284800ED93FC93AE81BF81AB5BBF4F0E946821C3
:10285800EE87FF87688B798B0E947A2651F4AE81C8
:10286800BF81AE5ABF4F0E943626EE87FF87688B1E
:10287800798B0E946C230E947921662777270E9412
:102888004C220E9410220E9468257F936F93FF9329
:10289800EF930E947823AF91BF918F919F91662704
:1028A80077270E946D25EE81FF81E281F0E00E948A
:1028B800C6250E940926EE5FFF4F6F4F7F4FEA87BC
:1028C800FB876C877D87AE81BF815E960E9441261B
:1028D80011E00E949C21A73FEFE0BE07E0E08E07D1
:1028E800E0E09E0708F012E00E949C21A73FEFEF6E
:1028F800BE07E0E08E07E0E09E0708F013E0133023
:1029080039F4AE81BF81A25ABF4F0E94362602C059
:102918000E948023AE81BF8196960E9441260E9424
:1029280080237F936F93FF93EF930E947823AF9157
:10293800BF918F919F910E947B22AE81BF819A9611
:102948000E944126AE81BF811E960E9474210E947A
:102958004126AE81BF811496E0E0EC93133009F074
:102968005FC0AE81BF811596EC93AE81BF81AE5931
:10297800BF4F0E9432260E947323AE81BF815296B8
:102988000E944126EE81FF81A181AA93EF81F885FB
:10299800F296FA93EA93E985FA850E9407210E9444
:1029A800A808E03011F5EE81FF810E944723E9F481
:1029B800AE81BF81D2960E943626E235A2E5FA079B
:1029C800A1E66A07A1E47A0781F4EE81FF81F29615
:1029D800EC51FE4FDF010E943626E237A2E7FA07E4
:1029E800A1E46A07A1E67A0709F01AC0EE81FF811F
:1029F800F296E451FE4FDF010E943626AE81BF8178
:102A08001A960E944126EE81FF81F296E851FE4F08
:102A1800DF010E943626AE81BF811E960E944126A4
:102A2800AE81BF811C939E960E94EC20AE81BF812F
:102A380056960E94EC20E091B429F091B529319680
:102A4800E093B429F093B529AE81BF811696ED9332
:102A5800FC93E0E00E9495266F960895BA93AA9396
:102A6800EA81FB81309771F0AA81BB81EC91E0305B
:102A780049F0EA81FB81A681B781E881F981EA17EB
:102A8800FB0711F0E9E00AC0EA81FB81A1810E94FD
:102A98009E08E17011F0E3E001C0E0E0249608959B
:102AA800BA93AA931A930A93AC81A13010F0EBE081
:102AB80020C0EC810E945F230D911C91002E012AF9
:102AC80019F0D801E0E0EC93EA81FB81309721F01E
:102AD800AA81BB81E0E0EC93EC81A2EBB9E2F0E0E3
:102AE800EE0FFF1FEA0FFB1FAA81BB81A083B183F2
:102AF800E0E01981088125960895AA93A2970E947B
:102B08009026A9A5BAA50E942E23EEA1EF71EEA3E7
:102B1800FE01B7960E948723EAA5EE71AE2F0E94A8
:102B28008E2311F0E12F07C10E949323A9A5BAA50E
:102B3800E9DC1E2FEEA1EC7109F492C02897103041
:102B480089F0143021F4DE0158964CDB1E2F10302A
:102B580019F0E12F2896EFC0EEA5E860EEA72AA5A8
:102B68003BA567C0EEA5E47019F0E8E02896E3C03D
:102B78002AA53BA5022E032A21F0F901E385E1717C
:102B880019F0E7E02896D7C0EEA5E87009F451C01F
:102B98000E9433230E94C1257F936F93FF93EF9385
:102BA8000E943623AF91BF918F919F910E943B2342
:102BB8000E94F621F9017496A0E0B0E0A083B183E9
:102BC800F9017A96A083B183F9017C960E94E220EC
:102BD8000E945E26A88DB98D1496E1E0EC93A88D2D
:102BE800B98D9E960E9421210E9403220E947A2676
:102BF800B1F0E88DF98DFA93EA930E9458220E9469
:102C0800D20D1E2F103011F0289695C00E94032275
:102C18000E949C23A88DB98D1A960E944126E88DA2
:102C2800F98D0E94A1230E94E72019F0E12F289630
:102C380082C0EEA5E87091F0F9013B96A0E0A08370
:102C48000E94A823D9011E960E944126A88DB98DFD
:102C58001496E1E0EC93EEA5E062EEA7289617C083
:102C6800103011F0E12F67C00E94AB2321F0F90169
:102C7800E385E07111F0E4E05EC0EEA1E27021F0BE
:102C8800F901E385E17009F402C0E7E054C0A889BE
:102C9800B9899E960E943626A9A5BAA55A960E9479
:102CA8004126EAA1FBA1A9A5BAA55E96ED93FC93DE
:102CB800EEA1A9A5BAA51496EC930E9433230E940D
:102CC800C1257F936F93FF93EF930E943623AF91B3
:102CD800BF918F919F910E943B23A9A5BAA51E96EB
:102CE8000E944126D9015C960E943626A9A5BAA55C
:102CF8001A960E944126A9A5BAA516960E94EC200C
:102D0800A9A5BAA51596EFEFEC93A9A5BAA556966D
:102D18000E94EC20E889F989A9A5BAA5ED93FC934E
:102D2800A889B98916960E943226A9A5BAA512962D
:102D3800ED93FC93E0E00E949726AB960895BA9332
:102D4800AA932E970E948E26E88DF98DEE83FF8335
:102D5800AC89BD890E942E230E94B023EC8DFD8D85
:102D68000E94B32311F0E12F46C1EA8DFB8DA481A7
:102D7800A07811F0E2E03FC1EA8DFB8DA481A1703B
:102D880011F4E7E038C1EA8DFB8DA285B38584850F
:102D980095859F938F93BF93AF930E94BA23EF912A
:102DA800FF916F917F910E9468250E942B220E94BB
:102DB8003022AE89BF89882799270E94842620F46B
:102DC800E885F985EE8BFF8BEE89FF89309709F44A
:102DD80011C10E94BA230E94C12309F0D7C0EA8D0D
:102DE800FB8D05800E94C6230E16A8F10E94BA2307
:102DF8000E947E2631F4AA8DBB8D1E960E9436262F
:102E080006C00E94B0230E94CC230E94B70C0E94E7
:102E1800D323A889B9898A899B890E94142120F41F
:102E28000E94D823E2E0E7C0A889B9898A899B89EA
:102E38000E94D62121F40E94D823E1E0DCC00E9440
:102E4800F921AA8DBB8D52960E944126AA8DBB8D71
:102E58001596E0E0EC930E94B0230E94CC230E94D8
:102E6800E20E0E94DF230E943F2221F40E94D82311
:102E7800E2E0C1C00E94E4230E941C220E94E923D0
:102E88000E94DF23AE89BF890E94EE2309F447C060
:102E98000E94E423E40FF51F0F010E94C623D0010E
:102EA800F0E0EA17FB0748F40E94C623F0E0DF01D0
:102EB8000E94E423AE1BBF0BAD010E94F623EF81F5
:102EC800F8850E94FD230E946326A42F0E94A8086B
:102ED800E03021F00E94D823E1E08DC0EA8DFB8D1F
:102EE800A481A07429F00E9404240E940B2408F0F5
:102EF80011C00E9404240E941324AE81BF810E9445
:102F08001C24EC8DFD8DB096FA93EA93A0E0B2E014
:102F18000E940120AA8DBB8D0E94232457C0EA8DF0
:102F2800FB8DA481A074A1F00E94F623EB8DFC8D8B
:102F3800B096FA93EA93ED8DFE8D0E942E2421F02F
:102F48000E94D823E1E057C0AA8DBB8D0E94392486
:102F58000E9404240E94842671F00E94F623EB8DBF
:102F6800FC8DB0960E94FD230E94402321F00E9410
:102F7800D823E1E040C00E942122AA8DBB8D56963D
:102F88000E944126AA8DBB8D0E943E24AA8DBB8D2E
:102F98000E944324A0E0B2E0AE1BBF0B9D01EE8966
:102FA800FF89E217F30710F42E893F890E9429232D
:102FB800AC8DBD8D0E944324AC8DBD8D9096EA0FDB
:102FC800FB1FFA93EA93D9010E9401200E9448242A
:102FD800EA8DFB8D0E945024D0010E944126AC89C5
:102FE800BD890E945924EE89FF89E21BF30BEE8B01
:102FF800FF8BEACEE0E00E9495266C960895BA937E
:10300800AA932A970E948E26EC89FD89EE83FF8376
:10301800A889B9890E942E230E946024E88DF98D21
:103028000E94B32311F0E12F84C1EE89FF89A481A6
:10303800A07811F0E2E07DC1EE89FF89A481A27039
:1030480011F4E7E076C1EE89FF89A285B38584850E
:103058009585EA89FB890E947B227F936F93FF9372
:10306800EF930E946324AF91BF918F919F910E942B
:10307800892618F4E0E0EA8BEB8BEA89FB89309724
:1030880009F43DC10E9469240E94C12309F0FBC0D4
:10309800EE89FF8905800E947024E2810E1608F4EB
:1030A80044C0AE89BF8916960E9436260E947A26A9
:1030B800B1F4AE89BF891E960E9436260E94DF238E
:1030C8000E943F2259F40E9460240E9475240E94A5
:1030D800DF23AE89BF891E960E94412608C00E9440
:1030E80060240E9478240E94270E0E94DF230E94F9
:1030F8003F2209F404C10E94452221F40E947F2442
:10310800E2E017C10E94432221F40E947F24E1E0FB
:1031180010C10E942122AE89BF8952960E94412681
:10312800AE89BF891596E0E0EC93EE89FF89A4810A
:10313800A07489F00E9470240E948624E98DFA8D7B
:103148000E942E2421F00E947F24E1E0F2C0AE8983
:10315800BF890E9439240E9460240E9478240E941A
:10316800E20E0E942B220E9430220E947A2621F42D
:103178000E947F24E2E0DDC00E948E240E940F217D
:103188000E94E9230E942B22AA89BB890E94EE2370
:1031980009F450C00E948E24E40FF51F0F010E940D
:1031A8007024E281D001F0E0EA17FB0750F40E9496
:1031B8007024E281F0E0DF010E948E24AE1BBF0B79
:1031C800AD010E947024E181EA93EF81F885FA93BA
:1031D800EA93EB85FC856D857E850E946326A42F86
:1031E8000E940C09E03021F00E947F24E1E0A1C098
:1031F8000E9493240E940B24C0F40E949A24A6895A
:10320800B789808D918DEA85FB856C857D850E94C7
:103218001324A885B9850E941C24A0E0B2E00E946E
:103228000120AE89BF890E943924AE89BF890E94D6
:10323800232451C00E9493240E948426C9F00E942E
:1032480069240D010E946324D0010E94892658F444
:103258000E9470240E948624EB85FC856D857E85FE
:103268000E94402309F404C00E947F24E1E061C069
:103278000E943022AE89BF8956960E944126AE89A7
:10328800BF890E943E24AE89BF890E944324A0E0E2
:10329800B2E0AE1BBF0B9D01EA89FB89E217F30779
:1032A80010F42A893B89AE89BF890E944324AE89DC
:1032B800BF899096EA0FFB1FFA93EA93E885F98590
:1032C800FA93EA93D9010E940120AE89BF89149626
:1032D800EC91E064EC930E944824EE89FF890E94F7
:1032E8005024D0010E944126A889B9890E945924F6
:1032F800EA89FB89E21BF30BEA8BFB8BBECE0E94AB
:1033080069240D010E946324D0010E94842650F490
:10331800AE89BF8916960E943626AE89BF891A964D
:103328000E944126AE89BF891496EC91E062EC9325
:10333800E0E00E94952668960895BA93AA93249788
:103348000E9490260E945D22FA93EA93EA85FB8503
:103358000E94B32309F063C0E885F985A481A072AF
:1033680009F45DC0A481A074A1F00E945D22E181EE
:10337800EA93E985FA85B096FA93EA93EB85FC859A
:103388000E942E2411F0E1E04BC0A885B9850E9467
:1033980039240E945D22FA93EA93EA85FB85A28D7F
:1033A800B38D848D958D0E94E720C9F5A885B985D0
:1033B8005E962D913C91D9011B96EC91E062EC93BD
:1033C800A885B9851A960E943626D9015C960E946E
:1033D8004126A885B9851E960E9432260E94A224FD
:1033E800E885F985A685B78580899189FD01BC01A5
:1033F8000E94A7240E94A8230E94AE24A885B9850C
:103408001496EC91EF7DEC930E945D223496A1E036
:10341800A0830E945D22DF010E944F0C1E2FE12F26
:103428000E9497262A960895BA93AA931A93A98177
:10343800BA8183DF1E2F103021F4A981BA810E943E
:103448002E23E12F188121C4BA93AA93A2970E9430
:103458009026FE01B6960E948723A0E00E948E2344
:1034680071F50E949323A8A5B9A50E94B32421F55C
:103478000E94AB2331F4A889B98956960E94EC20A2
:103488001BC0F901E385E071B1F00E9433230E946B
:10349800C1257F936F93FF93EF930E943623AF91DB
:1034A800BF918F919F910E943B23A889B989569615
:1034B8000E94412601C015E0143009F415E0E12FFF
:1034C8000E949726A89608950E94682660971A93E6
:1034D8000E94B824EF89F88D0E94B32309F091C1A6
:1034E800ED89FE89A481A07811F0E2E08BC10E94E9
:1034F800BB240E94C1240E94842628F4ED89FE89F9
:10350800A481A27009F004C00E94BB240E94C624B2
:10351800AD89BE8916960E94A5200E949A200E9415
:10352800F1210E94CB241596EFEFEC930E94C12461
:103538000E947E2608F011C10E94D324E281F0E0A7
:103548000E94C625A0E0B2E080E090E00E94D0256D
:10355800E987FA876B877C870E94B1200E947E26C4
:1035680098F40E94D8240E94DD247F936F93FF93E0
:10357800EF930E94C9210E94DD24AF91BF918F91E2
:103588009F910E94892608F421C00E94C9210E94A7
:103598009C23DF01CB010E94E7240E949C230E9408
:1035A800CB250E9472250E94CB2416960E943626AF
:1035B8000E94C1240E946D25A98BBA8B8B8B9C8B92
:1035C800AD89BE8952960E94EC242BC0AD89BE8974
:1035D8001E960E94EC240E94F3240E947A26F9F495
:1035E8000E94B8240E9475240E94F8240E94FD2499
:1035F8000E94CE2121F40E940225E2E003C10E942C
:10360800FD240E94D62121F40E940225E1E0FAC09F
:103618000E94F324AD89BE891E960E9441260E940D
:1036280009250E94F3240E947A2609F496C00E9474
:10363800E7240E94C1240E94842608F055C0ED8921
:10364800FE89A481A27099F00E94B8240E941025D6
:103658000E94270E0E94F8240E94F3240E947A26D2
:1036680029F40E94E7240E94C6243EC008C00E9494
:10367800B8240E9410250E94B70C0E94F8240E94CA
:10368800FD240E94D62121F40E940225E1E0BAC05F
:103698000E94FD240E94142158F00E94D3247E9693
:1036A800DF010E9436260E94FD240E94892620F010
:1036B8000E940225E2E0A6C00E9409250E94152565
:1036C800A985BA858B859C850E945E25D0010E94BC
:1036D8004126A985BA858B859C850E94D8240E949D
:1036E80068250E94C624A3CF0E9415250E94C124E4
:1036F8000E945E25D0010E9441260E94C124E0E07C
:10370800F2E060E070E00E940926AD89BE89159656
:10371800EC930E94D824F1703097F9F00E94B824F5
:103728000E9410250E94E20E0E94F1210E94AC2006
:103738000E947A2621F40E940225E2E063C0ED8906
:10374800FE89E581F0E00E94BB210E94E9230E94E6
:10375800F121AD89BE890E943E240E941D250E9448
:10376800C12351F0AD89BE8956960E9436260E9423
:10377800BB210E94842609F42BC0ED89FE89A4810F
:10378800A07489F00E94D324E181EA930E949A24CC
:103798000E942E2421F00E940225E1E033C0AD8969
:1037A800BE890E9439240E94D324E181EA93EE89DC
:1037B800FF89B0960E94CD2021F00E940225E1E009
:1037C80021C00E94AC20AD89BE8956960E94412630
:1037D8000E941D250D010E94BB24D0010E94842651
:1037E80080F4AD89BE8916960E943626AD89BE89B9
:1037F8001A960E944126AD89BE891496EC91E06222
:10380800EC93E12F188167960895BA93AA93A2972B
:103818001A93FE01B596FA93EA93FE013F96FA933E
:10382800EA93A0E00E948E23D9F4FE013196E9A321
:10383800FAA3FE013D96FA93EA93AFA1B8A50E94B8
:10384800B32471F4EF8DF8A1309749F0FE013D964D
:10385800FA93EA93ADA1BEA10E940A1201C016E034
:10386800E12F1881A7960895BA93AA93EC970E941E
:103878009026FE01E05CFF4F0E942425A1E00E94F3
:103888008E2309F081C0FE013896EEAFFFAFFE012E
:10389800BA96FA93EA93DE01AE5BBF4F0D90BC91E6
:1038A800A02D0E942B2539F0103029F4EEADFFAD84
:1038B800E385E07209F401C016E0103009F064C035
:1038C8002CAD3DAD022E032A11F4E6E05EC0F901ED
:1038D800E385E17011F0E7E058C00E9433230E94AD
:1038E800C1257F936F93FF93EF930E943623AF9187
:1038F800BF918F919F910E943B230E940622F9015C
:10390800E385E07139F10E94FE210E94142110F430
:10391800E2E03BC0FE0174960E942425A6E1B0E0D7
:103928000E9401200E942622EA8FFB8F6C8F7D8FD8
:10393800FE017496FA93EA93A2E00E94B82221F558
:10394800DE0154960E94C8101E2F103009F417E0AB
:103958001430D1F4DE019A960E943C111E2F1030CB
:1039680099F40E9426220E947A2639F0EAA5FBA53E
:103978000E94A1230E94D20D1E2F103029F4AAA55F
:10398800BBA50E944F0C1E2FE12F0E949726EF9691
:1039980023960895BA93AA93E2970E949026FE016F
:1039A800F696FA93EA93FE01B296FA93EA93A1E0A7
:1039B8000E948E2309F0F0C0FE017496ECABFDABBB
:1039C800FE01B096FA93EA93A8ADB9AD0E94B3246C
:1039D80009F418E0E1E0E03039F0143029F4ECA9FA
:1039E800FDA9E385E07209F401C016E0143009F07E
:1039F800D3C00E9431250E9475240E94DF2310E065
:103A08000E943F2209F417E00E94452209F412E0BF
:103A18000E94432209F411E0103039F40E94312544
:103A28000E94E2200E94EB0B1E2F103009F0B4C058
:103A38000E9431250E9479210E94E20E0E94D32320
:103A4800E8A1F9A1F2969F010E94DF22A0E0B2E06E
:103A58000E941320F9013096FA93EA930E94E92212
:103A6800D901EEE2EC93F9013B96A0E1A0830E9414
:103A7800A8230E94AE24EC85FD850E94A2240E9402
:103A880021220E94A724F901B096FA93EA933A9367
:103A98002A93A0E2B0E00E940120F901B196AEE2BB
:103AA800A083EEA1FFA168A579A50E942B22A8A159
:103AB800B9A1AC91A33051F4A8A1B9A196960E94DE
:103AC80036260E940F210E94842609F005C0E0E0F6
:103AD800E887E987EA87EB87F901FA96A885B98527
:103AE800A083B1830E9430220E94BC25D901D496BC
:103AF800ED93FC9300E0E8A1F9A1E2810E1710F51F
:103B08000E94F9210E9435220E94D32331976040F8
:103B18007040A8A1B9A19E960E944126A8A1B9A16A
:103B28001496E1E0EC930E9431250E94E2200E9465
:103B3800E72091F50E94DF22A0E0B2E00E94132066
:103B48000F5FD9CFDE0190960E94F6101E2F10301D
:103B580039F00E9431250E9479210E94D20D1CC0A3
:103B68002AA93BA9F9013B96A0E1A0830E9426223D
:103B78000E94AE24EC85FD850E94A2240E94212289
:103B88000E94A724A8A1B9A11496E1E0EC93A8A1EA
:103B9800B9A10E944F0C1E2FE12F0E949726E8968C
:103BA8000895AA930E943625A1E00E948E2341F52C
:103BB8000E949323AAA5BBA50E942B2539F010309B
:103BC80029F4ECA1FDA1E385E07209F401C016E037
:103BD8001030B1F40E94AB2311F416E011C0EEA12D
:103BE800E772EEA3AFA1EA230E2EF901A385EEA199
:103BF800E095EA23E029D9011B96EC930E943C2525
:103C080033C0BA93AA930E943625A1E00E948E235E
:103C180059F50E949323AAA5BBA50E942B2539F02C
:103C2800103029F4ECA1FDA1E385E07209F401C08C
:103C380016E01030C9F40E94AB2311F416E014C04A
:103C4800AEA1BFA116960E943226D9015696ED93D1
:103C5800FC93AEA1BFA114960E943226D9015896B2
:103C6800ED93FC930E943C25E12F0E949726AA968B
:103C78000895BA93AA93AA810E94D803A881B9810A
:103C88000E9432263196ED93FC9323960895BA93B9
:103C9800AA932B970E948E2610E0A989BA890E94C0
:103CA8002E23EF89F88D3196EF8BF88F3197E491B9
:103CB8002E2FE03009F45DC1E12FE03039F42532D0
:103CC80011F411E002C00E94472552C1E130A9F465
:103CD800253219F40E9447254AC112E040E000E06D
:103CE8002D3211F401E044C12B3211F44BE240C1F2
:103CF800203211F440E23CC102C0E23039F450E015
:103D080013E0203311F4006833C102C0E33091F4AA
:103D1800203310F02A3308F007C0AAE05A9F502D2C
:103D2800E22FE0535E0F24C12C3619F4026015E02F
:103D38001FC103C0E53009F01BC1E22FE33649F487
:103D48000E944E25ED89FE89A481AA930E945425DC
:103D58000EC1E33769F40E944E25AD89BE891496D9
:103D68000E94EF22AE81BF810E9423201E2F0FC028
:103D7800E03791F40E944E25AD89BE8914960E94C1
:103D8800EF22AE81BF810E942F201E2F08600F777F
:103D9800E0E0E88B30E068C0E43611F0E93611F471
:103DA800046002C0E537A1F4EAE0E88B01FF08C02F
:103DB800E0E0FAEC6AE97BE30E942B221AE022C0D9
:103DC800E0E1F7E260E070E00E942B2215E01AC003
:103DD800E83511F4086003C0E83709F0C8C0E0E12D
:103DE800E88B01FF08C0E0E0F0E060E070E10E94CD
:103DF8002B2218E007C0E0E0F0E160E070E00E94EC
:103E08002B2214E001FF08C00E944E25AD89BE890F
:103E180014960E94362613C002FF0AC00E944E253F
:103E2800AD89BE8914960E9432260E94C62507C015
:103E38000E944E25AD89BE8914960E946821EC87A0
:103E4800FD876E877F8702FF0FC0AF85AA233AF4EC
:103E58000E9421220E947C250E94DF234DE24030EF
:103E680011F01F5F01C00B7F00FD11C0151778F41A
:103E780007FF08C002FF04C00B7F242F115001C0A8
:103E880020E301C020E20E9447255150EFCF312F97
:103E9800E889E030B9F43030A1F003FF06C0EE81C4
:103EA800FF812591EE83FF8305C0AE81BF812D91EF
:103EB800AE83BF830E944725503009F051503150DE
:103EC800EACF4BC00E9430220E941C220E94092681
:103ED8002E2F2A3030F003FF02C0295C01C0295A76
:103EE80001C0205D04FD1BC0213328F40E940F216E
:103EF8000E94CE2109F409C0531710F000FF01C039
:103F080013C020E207FF0BC020E3006102FF07C0D7
:103F18000B7F4A930E945425503009F051500E945B
:103F28004725503009F0515031500E9430220E94EC
:103F38001C220E942E260E94DF23E8890E940F215E
:103F4800FF27662777270E9409260E942B220E94B6
:103F580030220E947A2609F0B5CF00FF08C0503001
:103F680031F05150E0E2EA930E945425F8CF10E076
:103F780098CEA989BA890E9432260E949526699608
:103F88000895FF92F82E26971A930A93DE01149645
:103F98000E945A258D01E0E0EC83ED83EE83EF83E8
:103FA800DE0118960E945A250E94E4221A930A9369
:103FB800EDE3FEE1FA93EA93DE01189668DE1981D3
:103FC80008812896FF900895BA93AA9366277727C1
:103FD80089919991E991F991A991B991009629F05E
:103FE80001976D9171916717C9F3671B10F4EFEF93
:103FF8000895E0E009F0E3950895BA93AA939981AA
:104008008881009641F0BD81AC81FB81EA81619194
:104018006D930197E1F7FD81EC8126960895BA9397
:10402800AA93B981A881109631F0FC81EB816A814D
:1040380061931197E9F7EB81FC8125960895BA936E
:10404800AA93A991B991EE27FF276D91662311F0E4
:104058003196FBCF0895BA93AA93AA27BB27E99173
:10406800F9910590002011F01196FBCFFD010895FC
:10407800662777270E946326089584E00E94C51F5B
:1040880026960895FF27662777270E946326E091E2
:104098005E280895E6E3F6E2FA93EA930895ECE6DB
:1040A800F8E2FA93EA9308950E9481153E2EE030D3
:1040B8000895EDECF3E0FA93EA93ECE6F8E2D8CF52
:1040C800FA93EA93F201D4CFA6E3B6E20E94181A53
:1040D8003E2EE0300895E5E0F4E0FA93EA93ECE64A
:1040E800F8E2C6CFFA93EA9380E00E94C51F2296B1
:1040F8000895FA93EA93E5E7F8E2BACFFA93EA93D8
:10410800ECE6F8E2B5CF0E94632688E00E94C51F5E
:104118002A960895ACE6B8E20E94FB03C0CFEA9362
:10412800A1E00E94D51D3E2EE0300895E0E0F0E0C9
:1041380060E070E00895F0E00E94C625DF01CB0141
:1041480008950E943626E983FA836B837C83089559
:10415800ED81FE816F8178850895A981BA818B816F
:104168009C810895E985FA85A181AA93EA85FB8552
:10417800F296FA93EA93EC81FD816E817F810E9429
:104188006326A1E00C940C09A2A1B3A184A195A176
:104198000895FA93EA93E885F9856A857B850E94F4
:1041A8006326A1E00E94A808E0300895BA93AA9374
:1041B8001A93E981FA81FA93EA930895A0E0B0E0AE
:1041C80080E090E008950E94EB0B1E2F10300895B8
:1041D800ADDF0E9441260895F296FA93EA93E0E053
:1041E800EA93A0E0B2E00C9413200E945E26E981D5
:1041F800FA81F29608950E943626D0010E9441263F
:10420800E981FA810895A289B389848995890E94F0
:104218006826A1E00895A885B9858A859B850895B3
:10422800A230E0E0BE07E0E08E07E0E09E070895D8
:10423800E1E0F0E060E070E008950E943626EC834B
:10424800FD836E837F830895EC85FD85FA93EA9359
:10425800D901E0E0F2E00E94F625AE81BF818885B1
:104268009985662777270E9463250E94EB0BE0302B
:104278000895AC85BD85D296F901F170AE0FBF1FC8
:104288000895EC85FD85FA93EA93AA85BB858C850C
:104298009D850895E0E0F1E060E070E00E94092665
:1042A8000895AE81BF81888599850E9463250E9403
:1042B800EB0BE03008950E94F025F170AC85BD85C8
:1042C800D296AE0FBF1F08950E9432266627772721
:1042D8000895E0E8F0E060E070E00E9409260895A3
:1042E800EFEFFFEF6FEF7FEF0895AE85BF85888909
:1042F80099890895EA89FB89FA93EA93D801E0E05D
:10430800F2E00E94F62587DF662777270E9463255B
:104318000E94EB0B5E2F50300895AA89BB89D29674
:10432800F801F170EA0FFB1F9F01EE85E170089517
:10433800AA85BB858C859D850895EA89FB89FA93B2
:10434800EA93A889B9898A899B89089564DF0E94BC
:1043580063250E94EB0B5E2F503008950E94F025D4
:10436800F170AA89BB89D296EA0FFB1F0895AD8127
:10437800BE818F8198850895A985BA855E960E9429
:104388003626F5DF0E9489260895E981FA816B8136
:104398007C810895A130E0E0BE07E0E08E07E0E010
:1043A8009E070895AF3FEFEFBE07EFEF8E07EFEFE1
:1043B8009E070895A685B78580899189F3CFA98539
:1043C800BA851E960E943C26EF5FFF4F6F4F7F4FC6
:1043D8000E944626A985BA850895ED83FE836F83DA
:1043E800788708950E9459260895E889F9896A8985
:1043F8007B890895AC81BD818E819F8108950E943B
:104408004F260895EC83FD836E837F830895EC899E
:10441800FD89FA93EA930895AA89BB898C899D89B5
:1044280008950E94B70CEC87FD876E877F870895F3
:10443800AC85BD858E859F850895EC85FD856E8547
:104448007F850895EC81FD816E817F810895E887DD
:10445800F9876A877B870895E885F9856A857B856A
:104468000895EF5FFF4F6F4F7F4F0895EBDFD3DE67
:104478000E9484260895E1DF0E947A260895D8DFF5
:1044880091CFD6DF87CFEA89FB896C897D8908952A
:104498000E946D260E94682508950E943626EA83A8
:1044A800FB836C837D830895AA81BB818C819D8168
:1044B8000895A885B9850E94322608957E96DF0161
:1044C8000E943626F1DF0E9489260895EA81FB8141
:1044D8006C817D810E947A260895EA81FB816C8136
:1044E8007D81A885B9851A960E944126E2CF662764
:1044F80077270E945E250895EF70F070EE0F0E94F6
:10450800A525EA0FFB1F08951E960E9436260E94D5
:104518007A260895A985BA850E9432260895FA93C5
:10452800EA93EB85FC85A285B385848595850895F6
:1045380069DF88CFFA93EA9341DE0E94EB0BE03003
:104548000895FA93EA93AE81BF81888599850C9482
:10455800E20EBA93AA930E9490260895EC81FD81F9
:10456800FA93EA93A0E00895B0E00E941A0F1E2F74
:1045780010300895AC81BD810E943226FA93EA93E7
:10458800EE81FF81A685B785808991891CCEAC8193
:10459800BD8152962D913C91D9010C91003008951E
:1045A8003A932A93EE81FF81A489B589BA93AA9395
:1045B800ABE0B0E008953A932A93E0E0EA930895D7
:1045C8000E943226FA93EA930895E0E2EA93ABE078
:1045D800B0E00C9413200E943226EE83FF830895E6
:1045E800E885F985AE81BF810895E885F98531961A
:1045F800E887F9873197AE81BF81AE0FBF1F0C9155
:104608000895E22F2F5FF0E0E40FF51F008308956F
:10461800EA0FFB1FAB85BC85ED93FC93013208952F
:10462800DA01EE27A10FBE1F0C9100320895EE812A
:10463800FF813196EE83FF83319700830895AE8121
:10464800BF8116960E9441260895EE81FF81FA9354
:10465800EA930895E0E0F0E0ED93FC930895D90122
:10466800549632CED9015A960E943226089566276A
:1046780077270E94772508950E946326A1E00E946B
:10468800A808E0300895F296E250FE4FDF010E943C
:104698003226E535AAEAFA0708950E943626EF7F02
:1046A800FF7F6F7F7070E634A1E4FA07A4E56A071C
:1046B800A0E07A070895A2EBB9E2F0E0EE0FFF1F41
:1046C800AE0FBF1F0895EA8BFB8B6C8B7D8B089513
:1046D800AE81BF81A05CBF4F0E9432260895AE898B
:1046E800BF89888D998D03CFEE81FF81A085B18523
:1046F800FD010E94AE250895EE81FF8145DDC3DEF0
:104708000E945E250895FA93EA93FE017296FA9341
:10471800EA9308950E943C131E2F10300895FE015D
:104728003496ECA3FDA3FE017096FA93EA930895DC
:10473800E150F040604070400895FA93EA93AE81EA
:10474800BF818885998508950E94530BF1CE2AA1CF
:104758003BA1022E032A0895AA8DBB8D31CFA281D9
:10476800B3810E9432151E2F10300895EA8DFB8DFB
:10477800A681B781808591850895FD01BC01F170FE
:1047880030970895AA8DBB8D0E943226E281089544
:10479800EC8DFD8DA289B389848995890895E88B6C
:1047A800F98B6A8B7B8B0895AA8DBB8D1496EC913F
:1047B800E068EC930895EC87FD876E877F870895FE
:1047C800EA8DFB8DE581F0E008950E94C6250E94E0
:1047D8005E250895E0E0F2E00E94F625AF01042E80
:1047E800052A0895AA8DBB8D0E943226E181EA939D
:1047F8000895FA93EA93EF85F88969897A89089583
:10480800EA8DFB8DA689B789808D918D16CE0E9481
:104818006D25FA01662777270E94892608950E9448
:104828006D25E0E0F2E060E070E00E94D025089598
:1048380088279927EA0FFB1FFA93EA93089515969C
:10484800EC91E40FEC93FA01EE0FFF1FFE2FE0E06E
:104858009F010895A689B789808D918D0E94682649
:10486800A1E00E940C09E03008951496EC91EF7BCA
:10487800EC9308951596EC91EF5FEC9308951696D6
:104888000E943226F1700895F901AE81BF81EA0FC6
:10489800FB1FEE83FF83089536960F01DF010E9408
:1048A8003626DF01CB01F90122CE0E943226E20F23
:1048B800F31FED93FC930895AE89BF8981CEAE892D
:1048C800BF891A960E9436260895EE89FF89A68127
:1048D800B781808591850895AE89BF890E94322667
:1048E80008956CDC0C94270EE88DF98DA289B389A4
:1048F800848995890895AE89BF891496EC91E068FA
:10490800EC930895E181EA93EF89F88DB096FA93D4
:10491800EA930895EE89FF89E581F0E00895EE892C
:10492800FF89A689B789808D918D96CDEE89FF89FB
:10493800B096FA93EA93E88DF98D0895D9015A96BD
:10494800ED93FC9308950E94BC25D9015496ED93EC
:10495800FC930895D90156960E94412608950E9415
:1049680086121E2F10300895AD89BE8929CEAD89D3
:10497800BE891A960E9436260895A989BA898B8914
:104988009C890895E98BFA8B6B8B7C8B0895AD8994
:10499800BE8916960E944126AD89BE890895AD89C3
:1049A800BE890E9432260895E989FA896B897C8933
:1049B8000895BEDEDF01CB01E985FA856B857C852C
:1049C8000E9409260895E985FA856B857C850895F6
:1049D8000E943626ED87FE876F87788B0895ED85D0
:1049E800FE856F8578890895ED87FE876F87788BB8
:1049F8000895AD85BE858F8598890895AD89BE894E
:104A08001496EC91E068EC930895E9DFAD89BE89CE
:104A180052960E9441260895AF85B88989899A8956
:104A28000895ED89FE8936960F01DF010E9436262A
:104A38000895ED89FE89A681B781808591850895BD
:104A4800FA93EA93FE01BC96FA93EA9308950E94BA
:104A580086121E2FE1E0E0300895E8A1F9A1FA934B
:104A6800EA930895A2970E949026FE01B8964BCE2D
:104A7800A889B9891496E1E0EC93A889B9890E94BC
:104A88004F0C1E2F08952A93AA89BB89EC89FD89AA
:104A980009950895ED89FE893497ED8BFE8B08956D
:104AA800AA89BB89EC89FD89099508950024AF0D71
:104AB800B01D0895EA0FFB1F681F791F0895AE0FF8
:104AC800BF1F861F971F0895EA1BFB0B680B790B06
:104AD8000895AE1BBF0B860B970B0895EA23FB23A3
:104AE800682379230895EA2BFB2B682B792B0895EB
:104AF800F09560957095E195FF4F6F4F7F4F089542
:104B0800EE230E2EFD0121F0F695E7950A94E1F7C4
:104B18000895EE230E2EFD01BC0131F0EE0FFF1FAC
:104B2800661F771F0A94D1F70895EE230E2EFD0114
:104B3800BC0131F076956795F795E7950A94D1F71A
:104B48000895EE0FFF1FEE0FFF1FEE0FFF1FEE0F72
:104B5800FF1F0895F695E795F695E795F695E7957D
:104B6800F695E7950895EE0FFF1F661F771F0895C6
:104B7800E62FF72F60E070E008956E2F7F2FE0E0BA
:104B8800F0E008956F2F660F660B762F0895E09575
:104B9800F0956095709508957A9F702D6B9F700DB4
:104BA800F89F700DE99F700D6A9F602D710DFB9F36
:104BB800600D711DE89F600D711D8827FA9FF02D0B
:104BC800610D781FEB9FF00D611D781FEA9FE02DA6
:104BD800F10D681F781F08956E2F6A9FF0016B9F73
:104BE800F00D08950024112490E1AA0FBB1F001CAA
:104BF800111C0E1A1F0A18F40E0E1F1E01C0A16008
:104C08009A9599F7FD01D00108953F934F935F93CB
:104C1800002411244427552730E2AA0FBB1F881F00
:104C2800991F001C111C441F551F0E1A1F0A460B02
:104C3800570B28F40E0E1F1E461F571F01C0A160F8
:104C48003A9559F7FD01BC01D001CA015F914F9116
:104C58003F910895DADFFD01BC010895ED91FC91C3
:104C680011970895ED91FD916D917C911397089599
:104C7800ED91FD916D917D910895ED93FD936D9367
:104C88007C9308957E936E93FE93EE93089505901A
:104C9800F491E02D0895E881F9816A817B81089576
:104CA800A881B9818A819B810895E883F9836A8301
:104CB8007B830895A083B1838283938308957A9335
:104CC8006A93FA93EA9308959A938A93BA93AA9364
:104CD8000895182E862F612D192E972F712D1B2EB2
:104CE800BF2FF12D1A2EAE2FE12D08953097604079
:104CF8007040089500240A160B0608060906089550
:104D0800EA17FB07680779070895AE17BF078607F4
:104D1800970708955A934A933A932A931A930A93B2
:104D280008955D814C813B812A811981088108950C
:00000001FF
